:0300000002098969
:0C098900787FE4F6D8FD7581150209D0D6
:080BD6000210001E020C0018C1
:100B8900000000000000000000000000000000005C
:0A0B99000000000000000000002230
:0A0BB800C2917F12120B69D2912244
:0A0BC2002091FD3091FD2091FD22ED
:100B1300E4FFFEFDFC3091FD120B89EF25E0FFEEB3
:100B230033FE309106EF4401FF80002091FD0DBD9F
:090B330000010CED64084C70DCBB
:010B3C002296
:10080000120AA0C297C296E4F5A0120BB8120BC24E
:10081000120B138E0E8F0F120B138E148F15120BDB
:10082000138E128F13120B138E0A8F0B120B138E53
:10083000088F09E50F2515FFE50E3514FEE5132F8A
:10084000FFE5123EFEE50B2FFFEFB509BDE4B5084D
:10085000B97F38120BCC7F01120B697F0F120BCCC2
:100860007F01120B697F01120BCC7F01120B697F94
:1008700010120BCC7F01120B697F0C120BCC7F0185
:10088000120B697F80120BCC7F01120B697F54120F
:100890000BAE7F65120BAE7F6D120BAE7F70120B2D
:1008A000AE7F20120BAE7F3A120BAE7F20120BAE42
:1008B000AE12AF137C007D0A120A15EF2430FF122E
:1008C0000BAEAE12AF13120BA37F2E120BAEAE0AFD
:1008D000AF0B120BA37F43120BAE7FC0120BCC7F6A
:1008E00048120BAE7F75120BAE7F6D120BAE7F6997
:1008F000120BAE7F64120BAE7F3A120BAE7F20124A
:100900000BAEAE0EAF0F7C007D0A120A15EF24303D
:10091000FF120BAEAE0EAF0F120BA37F2E120BAE5B
:10092000AE14AF15120BA37F25120BAE7F20120B56
:10093000AED3E5139511E5106480F8E51264809854
:100940004004D297803BC3E513950DE50C6480F815
:10095000E5126480985004D2968026309711C3E542
:1009600013941CE512648094805004C29780123066
:10097000960FD3E513941AE512648094804002C266
:09098000967FF4120B6902080ACB
:0A0BCC008FA0C2B5120B3DC2B32288
:0B0BA3007C007D0A120A15ED2430FFD3
:0A0BAE008FA0D2B5120B3DC2B32296
:080B3D00C2B4D2B37F017E00B7
:100B4500E4FDFCC3ED9FEC9E5015E4FBFA0BBB00E6
:0F0B5500010ABA04F8BBFBF50DBD00010C80E4EA
:010B6400226E
:040B65007F017E008E
:100B6900E4FDFCC3ED9FEC9E5015E4FBFA0BBB00C2
:0F0B7900010ABA2EF8BBE0F50DBD00010C80E4B7
:010B8800224A
:100AA0007F0F120BCC120B65120BCC120B657F0E55
:100AB000120BCC120B657F77120BAE7F65120BAE5B
:100AC0007F6C120BAE7F63120BAE7F6F120BAE7F8B
:100AD0006D120BAE7F65120BAE7FC0120BCC7F6721
:100AE000120BAE7F6F120BAE7F70120BAE7F6912CE
:100AF0000BAE7F6B120BAE7F61120BAE7F20120B21
:100B0000AE7F6A120BAE7F69120BAE120B657F0AC5
:030B1000020B4590
:10099500020800E493A3F8E493A34003F68001F270
:1009A50008DFF48029E493A3F85407240CC8C33363
:1009B500C4540F4420C8834004F456800146F6DF32
:1009C500E4800B0102040810204080900BD6E47EE1
:1009D500019360BCA3FF543F30E509541FFEE49327
:1009E500A360010ECF54C025E060A840B8E493A3EE
:1009F500FAE493A3F8E493A3C8C582C8CAC583CA19
:100A0500F0A3C8C582C8CAC583CADFE9DEE780BED0
:010BDE000016
:100A1500C2D5EC30E709B2D5E4C39DFDE49CFCEEFC
:100A250030E715B2D5E4C39FFFE49EFE120A4BC31F
:100A3500E49DFDE49CFC8003120A4B30D507C3E41A
:060A45009FFFE49EFE226B
:100A4B00BC000BBE0029EF8DF084FFADF022E4CC8F
:100A5B00F875F008EF2FFFEE33FEEC33FCEE9DEC58
:100A6B00984005FCEE9DFE0FD5F0E9E4CEFD22ED9E
:100A7B00F8F5F0EE8420D21CFEADF075F008EF2FE8
:100A8B00FFED33FD4007985006D5F0F222C398FDD9
:050A9B000FD5F0EA2276
:00000001FF
